:06000000020FE002006B9C
:03000B0002006B85
:0300130002006B7D
:03001B0002006B75
:0300230002006B6D
:03002B0002006B65
:0300330002006B5D
:03003B0002006B55
:0300430002006B4D
:03004B0002006B45
:0300530002006B3D
:03005B0002006B35
:0300630002006B2D
:01006B003262
:0900800002006B0002006B00029B
:08008900006B0002006B000295
:08009100006B0002006B00028D
:08009900006B0002006B000285
:0800A100006B0002006B00027D
:0800A900006B0002006B000275
:0700B100006B0002006B0070
:0901000002006B0002006B00021A
:08010900006B0002006B000214
:08011100006B0002006B00020C
:08011900006B0002006B000204
:08012100006B0002006B0002FC
:08012900006B0002006B0002F4
:08013100006B0002006B0002EC
:08013900006B0002006B0002E4
:08014100006B0002006B0002DC
:08014900006B0002006B0002D4
:08015100006B0002006B0002CC
:08015900006B0002006B0002C4
:08016100006B0002006B0002BC
:08016900006B0002006B0002B4
:08017100006B0002006B0002AC
:07017900006B0002006B00A7
:030FF800021000E4
:070FE000E4F50AF50BE4F54E
:040FE7000CF50D7583
:020FEB000E00F6
:03101300020FFBCE
:050FFB0012018080FEE0
:0701800012059512061D1285
:08018700067012057CC2AF12E4
:0A018F000F13120AB2D2EAD2AF1227
:0601990009C112069202EA
:02019F00054316
:0501A10090E68BE4F084
:0901A60090E6A0E0FA20E1F82245
:0A01AF0090E6B8E0FABAC00280033F
:0301B9000203102E
:0A01BC0090E6B9E0FABA8002801262
:0501C600BAA202805501
:0501CB00BAA302805000
:0501D000BAA902804500
:0301D50002030C16
:0E01D80090E6BCE0FA601DBA013490E6C1E08A
:0E01E600235401FA90E740F090E68AE4F0908E
:0801F400E68B7401F002052CFA
:0D01FC0090E6C1E0235401FA90E740F09036
:0D020900E68AE4F090E68B7401F002052C0B
:0402160075820022CB
:06021A0075080143090113
:0A02200090E6BAE0FA8A0F751000AC
:0A022A0090E6BBE0FDE4420FED4258
:090234001090E6BEE0FC8C11758F
:0A023D00120090E6BFE0FFE4FE426D
:0402470011EF42125F
:07024B00E5114512700302EA
:02025200052C79
:0C02540090E6A0E0FE20E1F8C3E5119464
:0A02600040E51294005006AE11AF05
:03026A00128004FB
:04026D007E407F0050
:0C02710090E6B9E0F8B8A337E4F513F507
:01027D00146C
:0A027E00C3E5139EE5149F5063E5ED
:0A028800132440FCE51434E7FDA840
:040292000FA910E5BB
:0A0296001328F582E51439F583E022
:0A02A000F88C828D83F00513E4B59D
:0602AA0013D2051480CE02
:0402B0007C007D0051
:0E02B400C3EC9EED9F5014EC2440F582ED3417
:0D02C200E7F58374CDF00CBC00E80D80E57D
:0902CF008E1B7C407DE78C1C8D28
:0502D8001D850F828569
:0C02DD001083C006C0071207B3D007D082
:0102E900060E
:0C02EA0090E68AE4F090E68BEEF0EE2542
:0502F6000FF50FEF35CC
:0402FB0010F510E505
:0602FF0011C39EF511E59C
:05030500129FF5120239
:02030A00024BA4
:04030C0075820022D4
:0A03100090E6B8E0FCBC4002800358
:03031A00020528B1
:0A031D0090E6B9E0FCBC0102801577
:06032700BCA2030203DF8B
:06032D00BCA3030203DF84
:06033300BCA9030203D97E
:0303390002052496
:0D033C0090E6BAE0606990E6C67480F0902B
:0E034900E6C774EDF090E6C8E4F090E6C9F067
:0E03570090E6CAF090E6CBF090E6CC7403F08E
:0D03650090E6CD7402F090E60CE4F00090FC
:0E037200E6F574FFF00075BB000090E6C7745E
:0E038000EDF00090E6047480F00090E6047446
:0E038E0002F00090E6047406F00090E604E42D
:0A039C00F00075BB0600750CE97552
:0503A6000D0F02052C03
:0E03AB0075BB000090E6F574FFF00090E604CC
:0E03B9007480F00090E6047402F00090E604F8
:0C03C7007406F00090E604E4F000E4F599
:0403D3000CF50D0216
:0203D700052CF3
:0603D90075080143090153
:0A03DF0090E6BAE0FC8C0F751000E8
:0A03E90090E6BBE0FDE4420FED4298
:0903F3001090E6BEE0FC8C1175CF
:0A03FC00120090E6BFE0FDE4FC42B1
:0504060011ED4212E5BA
:08040B000E70061208DE858266
:010413000EDA
:07041400E51145127003021F
:02041B00052CAE
:09041D0090E68AE4F090E68BF011
:0E04260090E6A0E0FC20E1F890E68BE0FE7F7F
:0C0434000090E6B9E0FCBCA33AE4F5132C
:02044000F514B1
:0A044200C3E5139EE5149F4003027A
:02044C00050C9D
:05044E00A80FA910E554
:080453001328F8E51439F9E55E
:0A045B00132440F582E51434E7F5A0
:0C04650083E0FC88828983F00513E4B575
:0604710013CF051480CB3F
:040477007C007D0088
:0A047B00C3EC9EED9F400302050C48
:06048500850E157401B59F
:04048B000E02804697
:09048F00EC250FF9ED3510F8AA77
:080498000E7B001ABAFF011BE4
:0C04A000EA5201EB5200E9486010AA0F7C
:0A04AC00ECFB2AFAE50E145AD39572
:0404B6000EF4F51536
:0C04BA00EEC39CFAEF9DFBA8157900C36F
:0E04C600EA98EB9950098E028C03EAC39BF56D
:0104D4001512
:0A04D500EC250FF582ED3510F583DC
:0A04DF00EC2440F518ED34E7F519A0
:0A04E90085151AC004C005C006C046
:0D04F300071206EED007D006D005D004A8F1
:0C050000157A00E82CFCEA3DFD02047BAB
:07050C00EE250FF50FEF359E
:0405130010F510E5EA
:0605170011C39EF511E581
:05051D00129FF512021F
:020522000414BF
:0405240075820022BA
:0405280075820022B6
:04052C0075820122B1
:09053000C0E0E50C450D60067504
:050539000A01E4F50BCE
:05053E00C2CFD0E03245
:0D05430090E6C67480F090E6C774EDF0906D
:0D055000E6C8E4F090E6C9F090E6CAF0902D
:0E055D00E6CBF090E6CC7403F090E6CD74028D
:07056B00F090E60CE4F00043
:070572003000FD120B48C22E
:030579000080F609
:0C057C00750E0090E678E05410C4540F97
:0A058800FA74504AF5097401550990
:03059200F5082247
:0E05950090E6007410F0758E0090E60174027E
:0E05A300F00090E61074A0F00090E61174E0F5
:0E05B100F00090E612E4F00090E613E4F00093
:0E05BF0090E61474E0F00090E615E4F0009071
:0E05CD00E6047480F00090E6047406F00090DE
:0E05DB00E604E4F00090E618E4F090E619F073
:0D05E90090E61A740CF090E61BE4F0009010
:0E05F600E68AE4F00090E68DE4F00090E6E284
:0E0604007402F00090E6E37401F00090E6242A
:0B0612007402F00090E625E4F00022E6
:0D061D0090E6F574FFF0009010BAE49390A1
:0D062A00E6F3F09010BBE49390E6C3F0906F
:0E06370010BCE49390E6C1F09010BDE49390E7
:0E064500E6C2F09010BFE49390E6C0F07A0099
:03065300BA80006A
:0E06560050128A037CE4EA90101693FD8B820A
:060664008C83F00A80E91E
:06066A0090E6C6E4F02258
:0E1016000101010101010107000000000000BE
:0E1024000000000000000000000000000000BE
:0E1032000000003F0101010101010107000063
:0E1040000000000000000000000000000000A2
:0E104E00000000000000003F38010101010118
:0E105C0001070302020202020200000000006F
:0E106A0000000000360000000000003F3801CA
:0E10780001010101010703020202020202004F
:0E108600000000000000000036000000000026
:02109400003F1B
:0E10960000000000000000000000000000004C
:0E10A4000000000080ED00000000030200804C
:0810B200EE0000000003020043
:0710BA00A0000000AE4E0093
:050FED00E4F516F51704
:0E06700075B0FF75B5FFD280C281C282D28301
:0D067E00C284C285D28775B2BF758200228A
:07068B00851682851783220A
:0906920075B2FFC283C2807A0731
:0E069B00EA20E71E8AF005F074A43392D274B0
:0306A900A4800327
:0306AC00A2D213C4
:0E06AF00D5F0FAFB139281D282C2821A80DE4D
:0606BD00D280C2807A0722
:0E06C300EA20E71E8AF005F074183392D27414
:0306D1001880038B
:0306D400A2D2139C
:0E06D700D5F0FAFB139281D282C2821A80DE25
:0906E500D28075B2B975820022C1
:0E06EE00AA82AB83C002C0031207AA12077FC4
:0E06FC001208C1E582D003D00260047C0180A8
:01070A006E80
:0C070B00E508601890E679EBF0C002C031
:0E071700031208C1E582D003D00260047C0109
:02072500805200
:0E07270090E679EAF01208C1E58260047C01D8
:02073500804200
:06073700AA18AB197D00B9
:0C073D00C3ED951A502A8A828B83E0FEDF
:0E074900A3AA82AB8390E679EEF0C002C00353
:0E075700C0051208ACE582D005D003D00260C8
:05076500047C01800F7F
:03076A000D80D02F
:0C076D0090E678E04440F012078E7C001B
:0607790053B27F8C8222C6
:0A077F0090E6787480F0E509250982
:0507890090E679F0226A
:03078E001207AAA5
:0E07910012077F1208AC90E678E04440F012A8
:0B079F0007AA90E678E0FA30E1E822BB
:0907AA0090E678E0FA20E6F8225E
:0E07B300AA82AB83C002C0031207AA12077FFE
:0E07C1001208C1E582D003D0026004758201E7
:0107CF002207
:0C07D000E508601890E679EBF0C002C06C
:0E07DC00031208C1E582D003D00260047582CA
:0207EA000122EA
:0E07EC0090E679EAF01208C1E5826004758299
:0207FA000122DA
:0A07FC0090E6787480F0E509250905
:0E080600FA90E67974014AF01208ACE58260BF
:050814000475820122C1
:0E08190090E679E01208ACE582600475820179
:0108270022AE
:040828007A007B00D7
:09082C00AC1B7D001CBCFF011D8A
:0E0835008B067F00C3EE9CEF64808DF063F0B5
:0B0843008095F05025EB251CFCE435EF
:0C084E001DFD90E679E08C828D83F0C0E7
:0E085A00031208ACE582D0036004758201220F
:050868000B8B0280BFB4
:0E086D0090E6787420F0C0021208ACE582D04C
:07087B0002600475820122F6
:09088200EA251CFAE4351DFB9087
:0E088B00E679E08A828B83F01208ACE5826089
:0508990004758201223C
:0E089E0090E6787440F090E679E075820022D2
:0E08AC0090E678E0FAFB30E0F7EB30E20475FE
:0308BA0082012296
:0408BD00758200221E
:0E08C10090E678E0FAFB30E0F7EB30E20475E9
:0308CF0082012281
:0808D200EB20E1047582012214
:0408DA007582002201
:0808DE00E50870047582012297
:0408E600751C4075C8
:0308EA001D187561
:0A08ED001B409000001207B37A00D0
:0308F700BA400004
:0A08FA00500FEA2400F582E43418E0
:07090400F583EAF00A80EC24
:04090B0075180075E6
:03090F001918753F
:0A0912001A409000001206EE7A0071
:03091C00BA4000DE
:0A091F005011EA2400F582E43418B8
:09092900F583EAF4FBF00A80EA10
:05093200751B40751C5F
:0309370000751D2B
:08093A00189000001207B390B1
:0B0942001800E0FA30E0047B018006A2
:06094D0063023F0A8A0369
:020953007A0028
:03095500BA4000A5
:0A09580050208A047D0075184075D8
:0309620019188BD6
:0C0965001A8C828D83C002C0031206EEC3
:09097100D003D002EB2AFA80DB6E
:03097A008B82224B
:0EE0000012010002FFFFFF40C0162F070201B1
:04E00E000102060104
:0AE012000A060002FFFFFF400100B4
:0EE01C0009023200030100C0000904000000E8
:0EE02A00FFFFFF030904010001FFFFFF0407D1
:0EE038000502020002000904020001FFFFFFC2
:08E04600050705860200020037
:0EE04E0012010002FFFFFF40C0162F07020163
:04E05C0001020001BC
:0AE060000A060002FFFFFF40010066
:0EE06A0009021200010100C0000904000000BC
:04E07800FFFFFF03A4
:01E07C00079C
:02E07D008CE035
:02E07F0092E02D
:02E08100ACE011
:02E08300DCE0DF
:02E08500FEE0BB
:02E087001AE19C
:02E0890034E180
:06E08C0006030000090478
:0EE092001A0347004E003300530020005000D8
:0CE0A00072006F006A00650063007400ED
:0EE0AC003003430055002000410041005500A4
:0EE0BA0020005300690047006500200053005D
:0EE0C800450034003100310030004C002D00C6
:06E0D60045004B00330081
:0EE0DC00220343006F006D006D0061006E00B6
:0EE0EA00640020002600200053007400610036
:06E0F800740075007300C6
:0EE0FE001C035400720061006E0073006D0080
:0EE10C0069007400200050006100740068007B
:0EE11A001A035200650063006500690076007C
:0CE12800650020005000610074006800D9
:0CE134000C0331003000300030003000DF
:08097D007880E84400600C7969
:0C09850001901800E4F0A3D8FCD9FAD0CF
:0E09910083D082F6D8FDC082C083758200221A
:08099F0090E6A0E04401F02203
:0E09A700AA8274805AC423541FFB740F5A9006
:0C09B500E6834BF090E683E04420F02243
:0E09C10090E680E0440AF09000FA120FCF900A
:0E09CF00E65D74FFF090E65F74FFF05391EF69
:0809DD0090E680E054F7F022DF
:06100D00E478FFF6D8FDB7
:060FF200752200752300CA
:0A09E50090E680E0FA30E71975246F
:0309EF000075256B
:0309F200E0752687
:0309F50012752751
:0309F800E075287F
:0309FB001C75293F
:0309FE00E0752A77
:030A01006A752BE8
:020A0400E022EE
:040A060075244E7590
:030A0A0025E0756F
:030A0D00266075EB
:030A100027E07567
:030A1300286A75D9
:030A160029E0755F
:030A19002A1C751F
:030A1C002BE022AA
:090A1F005391EF75A100D20032E1
:0C0A2800C021C0E0C0F0C082C083C0024A
:0E0A3400C003C004C005C006C007C000C0015A
:0E0A4200C0D075D0005391EF75A1001209E5E8
:0E0A5000D0D0D001D000D007D006D005D00401
:0D0A5E00D003D002D083D082D0F0D0E0D001
:020A6B00213236
:0C0A6D00C021C0E0C0F0C082C083C00205
:0E0A7900C003C004C005C006C007C000C00115
:0E0A8700C0D075D0005391EF75A1001209E5A3
:0E0A9500D0D0D001D000D007D006D005D004BC
:0D0AA300D003D002D083D082D0F0D0E0D0BC
:020AB0002132F1
:050AB2001209E5751EAC
:030AB7001F751F89
:080ABA000A758200120E6C7532
:030AC2001E287576
:060AC5001F0A75821012E9
:040ACB000E6C751E1A
:030ACF006D751F23
:0C0AD2000A758214120E6C90E65C743100
:020ADE00F02204
:0D0AE000E582547FFA24F75004758200224D
:070AED00BA01047582012229
:080AF400530201E4BA00010401
:030AFC00F582225E
:0E0AFF00AA82BA010C90E6A1E0FB7C008B827B
:030B0D008C8322B4
:0E0B1000BA810C90E6A2E0FB7C008B828C8305
:010B1E0022B4
:0E0B1F0053027FEA700C90E6A0E0FB7C008B96
:040B2D00828C832211
:0E0B310090E6A3E0FB7C00EAC313FA7D00EA25
:090B3F002BFBED3C8B82F58322B7
:0C0B4800C20090E6B8E0FA530260BA0068
:030B5400028028F4
:050B5700BA2002800D30
:050B5C00BA4002800E0A
:050B6100BA60028003F0
:030B6600020E017B
:060B690012099F020E01BB
:0A0B6F001201AFE5826003020E01DF
:060B790012099F020E01AB
:0D0B7F0090E6B8E0FA530280BA80028003CD
:030B8C00020D0255
:0B0B8F0090E6B9E0FABA0003020C8007
:050B9A00BA06028035DF
:050B9F00BA0802800805
:050BA400BA0A028017EF
:030BA900020CFC3F
:0C0BAC0090E740E522F090E68AE4F0902B
:080BB800E68B7401F0020E014E
:0C0BC00090E740E523F090E68AE4F09016
:080BCC00E68B7401F0020E013A
:0A0BD40090E6BBE0FABA01028017B8
:050BDE00BA020280389C
:050BE300BA0302805975
:050BE800BA0602801BAB
:050BED00BA0702803C84
:030BF200020C7A78
:0A0BF500AA24AB2590E6B3EBF07BD9
:090BFF000090E6B4EAF0020E01D8
:0A0C0800AA26AB2790E6B3EBF07BC1
:090C12000090E6B4EAF0020E01C4
:0A0C1B00AA28AB2990E6B3EBF07BAA
:090C25000090E6B4EAF0020E01B1
:0A0C2E00AA2AAB2B90E6B3EBF07B93
:090C38000090E6B4EAF0020E019E
:0E0C410090E6BAE0FA90E07CE0FBC3EA9B404C
:070C4F000612099F020E01CD
:0C0C560090E6BAE075F002A4247DF5825F
:0B0C620074E035F0F583E0FAA3E090A9
:0D0C6D00E6B3F07B0090E6B4EAF0020E0161
:060C7A0012099F020E01A9
:0D0C800090E6B8E0FA53021FBA0002800AA5
:050C8D00BA0102801C09
:050C9200BA0264802C91
:0E0C970090E7407401F090E741E4F090E68AA7
:090CA500F090E68B7402F0804E21
:0E0CAE0090E740E4F090E741F090E68AF09085
:070CBC00E68B7402F08039A1
:0E0CC30090E6BCE0F582120AE0E58260249023
:0E0CD100E6BCE0F582120AFFE0FA5302019041
:0E0CDF00E740EAF090E741E4F090E68AF090FA
:070CED00E68B7402F08008A1
:050CF40012099F8003BE
:030CF90012099F3E
:060CFC0012099F020E0127
:0C0D020090E6B9E0FA24F45003020DFE64
:070D0E00EA2A2A900D15737B
:070D1500020DFE020D4B026E
:060D1C000DC6020DA70246
:060D22000DFE020DFE02B1
:060D28000DFE020DFE02AB
:060D2E000DFE020D39026A
:050D34000DFE020D425E
:090D390090E6BAE0F522020E0179
:090D420090E6BAE0F523020E016F
:0D0D4B0090E6B8E0FA53021FBA00028005DE
:050D5800BA0247800A09
:0A0D5D0090E6BAE012099F020E01B1
:0D0D670090E6BAE0703090E6BCE0F5821234
:0D0D74000AE0E582602390E6BCE0F5821203
:0E0D81000AFFAA82AB83E0FC5304FE8A828B39
:0E0D8F0083ECF090E6BCE0F5821209A78064C8
:050D9D0012099F805FB8
:050DA20012099F805AB8
:0E0DA70090E6B8E0FA53021FBA004F90E6BA89
:070DB500E0FABA010280051B
:050DBC00BA02028040B4
:050DC10012099F803BB8
:0E0DC60090E6BAE0FA702C90E6BCE0F58212DE
:0D0DD4000AE0E582601A90E6BCE0F58212AC
:0E0DE1000AFFAA82AB83E0FC4304018A828BE6
:050DEF0083ECF0800D13
:050DF40012099F8008B8
:050DF90012099F8003B8
:030DFE0012099F38
:080E010090E6A0E04480F0221D
:050E0900AA82BA0300FB
:070E0E004005EA249C50019D
:010E150022BA
:090E1600740F5AFBBB03028007B4
:070E1F00740F5AFBBB0B45E9
:0A0E2600A2AF9202C2AFEA2400F569
:0C0E300082E43400F5837402F07B00744F
:0C0E3C00012AFCE43BFDEC2400F582EDF3
:0A0E48003400F583E51FFCF074028E
:0C0E52002AFAE43BFBEA2400F582EB34B2
:0A0E5E0000F583AA1E7B00EAF0A253
:030E68000292AF44
:010E6B002264
:080E6C00E582FA248350012203
:060E7400EA5403600122B4
:0A0E7A00A2AF9203C2AFEA2400F514
:0C0E840082E43401F5837402F07B0074FA
:0C0E9000012AFCE43BFDEC2400F582ED9F
:0A0E9C003401F583E51FF074022A0B
:0B0EA600FAE43BFBEA2400F582EB3489
:080EB10001F583AA1EEAF0A27C
:040EB9000392AF22CF
:050EBD00AA82BA8000CA
:070EC2004005EA244B50013A
:010EC9002206
:060ECA00EA54036001225E
:0A0ED000A2AF9204C2AFEA2480F53D
:0C0EDA0082E43400F5837402F07B0074A5
:0C0EE600012AFCE43BFDEC2480F582EDC9
:0A0EF2003400F583E51FF074022AB6
:0B0EFC00FAE43BFBEA2480F582EB34B3
:080F070000F583AA1EEAF0A226
:040F0F000492AF2277
:080F1300C2E8C2EA751E007578
:060F1B001F017582431264
:040F21000E09751E22
:030F250080751FB5
:0C0F280000758253120E090090E650E4A0
:0E0F3400F00090E652E4F00090E654E4F00085
:0E0F420090E656E4F00090E65174FFF0009047
:0E0F5000E65374FFF00090E65574FFF0009039
:0E0F5E00E65774FFF00090E658E4F090E65974
:0E0F6C0074FFF090E65AE4F090E65B74FFF03C
:0E0F7A0090E65CE4F090E65D74FFF090E65EB9
:0E0F8800E4F090E65F74FFF00090E660E4F0A5
:0D0F96000090E66174FFF090E662E4F090D8
:0E0FA300E66374FFF090E665E4F090E6687493
:0A0FB1000BF05391AFD2E8D2EA2210
:010FBB002213
:020FBC00AA8207
:060FBE00120FBBDAFB225A
:030FC40090FB504F
:080FC700A3E582458370F922C5
:040FCF00AA82AB83C4
:080FD300120FC41ABAFF011B42
:050FDB00EA4B70F42256
:0310000075812BCC
:0A10030012097DE5826003020FFB75
:00000001FF
