:06000000020FE702006B95
:03000B0002006B85
:0300130002006B7D
:03001B0002006B75
:0300230002006B6D
:03002B0002006B65
:0300330002006B5D
:03003B0002006B55
:0300430002006B4D
:03004B0002006B45
:0300530002006B3D
:03005B0002006B35
:0300630002006B2D
:01006B003262
:0900800002006B0002006B00029B
:08008900006B0002006B000295
:08009100006B0002006B00028D
:08009900006B0002006B000285
:0800A100006B0002006B00027D
:0800A900006B0002006B000275
:0700B100006B0002006B0070
:0901000002006B0002006B00021A
:08010900006B0002006B000214
:08011100006B0002006B00020C
:08011900006B0002006B000204
:08012100006B0002006B0002FC
:08012900006B0002006B0002F4
:08013100006B0002006B0002EC
:08013900006B0002006B0002E4
:08014100006B0002006B0002DC
:08014900006B0002006B0002D4
:08015100006B0002006B0002CC
:08015900006B0002006B0002C4
:08016100006B0002006B0002BC
:08016900006B0002006B0002B4
:08017100006B0002006B0002AC
:07017900006B0002006B00A7
:030FF000020FF3FA
:030FE700750A0088
:0310060002018064
:0501800012018580FE64
:0701850012057A12060212B6
:08018C000661120560C2AF120A
:0A0194000F1A120A7BD2EAD2AF1252
:06019E0009901206830225
:0201A40005272D
:0501A60090E68BE4F07F
:0901AB0090E6A0E0FA20E1F82240
:0A01B40090E6B8E0FABAC00280033A
:0301BE0002031425
:0A01C10090E6B9E0FABA800280125D
:0501CB00BAA2028057FA
:0501D000BAA3028052F9
:0501D500BAA9028047F9
:0301DA000203100D
:0E01DD0090E6BCE0FA601EBA013690E6C1E082
:0E01EB00FA235401FA90E740F090E68AE4F01F
:0901F90090E68B7401F00205236D
:0E02020090E6C1E0FA235401FA90E740F09034
:0D021000E68AE4F090E68B7401F00205230D
:04021D0075820022C4
:060221007508014309010C
:0A02270090E6BAE0FA8A0B750C00AD
:0C02310090E6BBE0FC8C05E4FC420BED09
:0A023D00420C90E6BEE0FC8C0D754B
:0C0247000E0090E6BFE0FE8E07E4FE42D1
:040253000DEF420E5B
:07025700E50D450E700302E6
:02025E00052376
:0C02600090E6A0E0FE20E1F8C3E50D945C
:0A026C0040E50E94005006AE0DAF01
:030276000E8004F3
:040279007E407F0044
:0C027D0090E6B9E0F8B8A32D7A007B00F1
:0E028900C3EA9EEB9F505EEA2440FCEB34E794
:0A029700FDA80BA90CEA28F582EB84
:0E02A10039F583E0F88C828D83F00ABA00DA1A
:0302AF000B80D7EA
:0402B2007C007D004F
:0E02B600C3EC9EED9F5014EC2440F582ED3415
:0D02C400E7F58374CDF00CBC00E80D80E57B
:0902D1008E137C407DE78C148D36
:0502DA0015850B828573
:0C02DF000C83C006C007120779D007D0BE
:0302EB0006E433F3
:0C02EE0090E68AE4F090E68BEEF0EE253E
:0502FA000BF50BEF35D0
:0402FF000CF50CE509
:060303000DC39EF50DE59F
:050309000E9FF50E023D
:02030E00025794
:0403100075820022D0
:0A03140090E6B8E0FCBC4002800354
:03031E0002051FB6
:0A03210090E6B9E0FCBC0102801573
:06032B00BCA2030203D88E
:06033100BCA3030203D887
:06033700BCA9030203D281
:03033D0002051B9B
:0D03400090E6BAE0606390E6C67480F0902D
:0E034D00E6C774EDF090E6C8E4F090E6C9F063
:0E035B0090E6CAF090E6CBF090E6CC7403F08A
:0D03690090E6CD7402F090E60CE4F00090F8
:0E037600E6F574FFF00075BB000090E6C7745A
:0E038400EDF00090E6047480F00090E6047442
:0E03920002F00090E6047406F00090E604E429
:0903A000F00075BB060002052304
:0E03A90075BB000090E6F574FFF00090E604CE
:0E03B7007480F00090E6047402F00090E604FA
:0D03C5007406F00090E604E4F00002052349
:0603D2007508014309015A
:0A03D80090E6BAE0FC8C0B750C00F7
:0C03E20090E6BBE0FC8C05E4FC420BED57
:0A03EE00420C90E6BEE0FC8C0D7599
:0C03F8000E0090E6BFE0FC8C05E4FC4227
:050404000DED420EE5C4
:080409000A70061208AA8582A0
:010411000AE0
:07041200E50D450E70030229
:020419000523B9
:09041B0090E68AE4F090E68BF013
:0E04240090E6A0E0FC20E1F890E68BE0FC8C76
:0E043200067F0090E6B9E0FCBCA3307A007BA8
:0104400000BB
:0A044100C3EA9EEB9F40030205038F
:0A044B00A80BA90CEA28F8EB39F918
:0E045500EA2440F582EB34E7F583E0FC888270
:0A0463008983F00ABA00D70B80D499
:04046D007C007D0092
:0A047100C3EC9EED9F40030205035B
:09047B00E50AF50FB40102804608
:09048400EC250BF9ED350CF8AA8A
:08048D000A7B001ABAFF011BF3
:0C049500EA5201EB5200E9486010AA0B8B
:0A04A100ECFB2AFAE50A145AD39581
:0404AB000AF4F50F4B
:0C04AF00EEC39CFAEF9DFBA80F7900C380
:0E04BB00EA98EB9950098E028C03EAC39BF578
:0104C9000F23
:0A04CA00EC250BF582ED350CF583EF
:0A04D400EC2440F510ED34E7F511BB
:0A04DE00850F12C004C005C006C05F
:0E04E800071206A5D007D006D005D004E433D5
:0B04F600A80F7A00E82CFCEA3DFD0294
:02050100047183
:07050300EE250BF50BEF35AF
:04050A000CF50CE5FB
:06050E000DC39EF50DE592
:050514000E9FF50E0230
:020519000412CA
:04051B0075820022C3
:04051F0075820022BF
:0405230075820122BA
:0D05270090E6C67480F090E6C774EDF09089
:0D053400E6C8E4F090E6C9F090E6CAF09049
:0E054100E6CBF090E6CC7403F090E6CD7402A9
:07054F00F090E60CE4F0005F
:070556003000FD120B11C281
:03055D000080F625
:0C056000750A0090E678E05410FAC454CC
:0A056C000FFA74504AF509740155A6
:0405760009F5082259
:0E057A0090E6007410F0758E0090E601740299
:0E058800F00090E61074A0F00090E61174E010
:0E059600F00090E612E4F00090E613E4F000AE
:0E05A40090E61474E0F00090E615E4F000908C
:0E05B200E6047480F00090E6047406F00090F9
:0E05C000E604E4F00090E618E4F090E619F08E
:0D05CE0090E61A740CF090E61BE4F000902B
:0E05DB00E68AE4F00090E68DE4F00090E6E29F
:0E05E9007402F00090E6E37401F00090E62446
:0B05F7007402F00090E625E4F0002202
:0E06020090E6F574FFF0009010ADE493FA90CE
:0E061000E6F3F09010AEE493FA90E6C3F0909B
:0E061E0010AFE493FA90E6C1F09010B0E493B0
:0E062C00FA90E6C2F09010B2E493FA90E6C0A5
:03063A00F07A0053
:03063D00BA800080
:0C06400050198A037CE4EA2409F582E4E6
:0C064C003410F583E493FD8B828C83F066
:030658000A80E233
:06065B0090E6C6E4F02267
:0E1009000101010101010107000000000000CB
:0E1017000000000000000000000000000000CB
:0E1025000000003F0101010101010107000070
:0E1033000000000000000000000000000000AF
:0E104100000000000000003F38010101010125
:0E104F0001070302020202020200000000007C
:0E105D0000000000360000000000003F3801D7
:0E106B0001010101010703020202020202005C
:0E107900000000000000000036000000000033
:02108700003F28
:0E108900000000000000000000000000000059
:0E1097000000000080ED000000000302008059
:0810A500EE0000000003020050
:0710AD00A0000000AE4E00A0
:0E066100C2B0C2B2D2B3C2B475B51DD280C24F
:0E066F0081C282D283C284C285C286C28775D0
:06067D00B2FF75820022AD
:08068300D284D28575820022A9
:08068B00C284C28575820022C1
:0E069300C284C285900001120FD6D284D28597
:0406A100758200223C
:0E06A500AA82AB83C002C003120770D003D03C
:0E06B30002C002C003120741D003D002C002F1
:0E06C100C00312088CD003D00250047C0180CC
:0106CF006BBF
:0C06D000E508601690E679EBF0C002C06F
:0E06DC000312088CD003D00250047C01805120
:0E06EA007B0090E679EAF012088C50047C0147
:0206F80080413F
:0606FA00AA10AB117D0007
:0C070000C3ED951250288A828B83E0FE26
:0E070C00A3AA82AB8390E679EEF0C002C00390
:0E071A00C005120876D005D003D00250047C32
:030728000180103D
:03072B000D80D26C
:0D072E0090E678E0FA4440F01207517C009C
:06073B0053B27F8C822204
:0A07410090E6787480F0E5092509C0
:06074B00FA90E679F022AD
:030751001207701C
:0E075400120741120876E43390E678E0FA448A
:0E07620040F012077090E678E0FA30E1E522F0
:0907700090E678E0FA20E6F82298
:0E077900AA82AB83C002C003120770D003D067
:0E07870002C002C003120741D003D002C0021C
:0E079500C00312088CD003D0025004758201FC
:0107A3002233
:0C07A400E508601690E679EBF0C002C09A
:0E07B0000312088CD003D0025004758201227F
:0E07BE007B0090E679EAF012088C50047582F8
:0207CC00012208
:0A07CE0090E6787480F0E509250933
:0E07D800FA90E67974014AF012087650047522
:0307E6008201226B
:0D07E90090E679E012087650047582012236
:0407F6007A007B000A
:0907FA00AC137D001CBCFF011DC5
:0E0803008B067F00C3EE9CEF64808DF063F0E7
:0B0811008095F05024EB2514FCE4352A
:0C081C0015FD90E679E0FE8C828D83F0E3
:0D082800C003120876D0035004758201222F
:050835000B8B0280C0E6
:0E083A0090E6787420F0C002120876D00250CA
:0508480004758201228D
:09084D00EA2514FAE43515FB90CC
:0E085600E679E0FC8A828B83F012087650046B
:040864007582012276
:0E08680090E6787440F090E679E07582002208
:0E08760090E678E0FA8A0330E0F6EB30E20418
:040884007582012256
:040888007582002253
:0E088C0090E678E0FA8A0330E0F6EB30E20402
:04089A007582012240
:08089E00EB20E1047582012248
:0408A6007582002235
:0808AA00E508700475820122CB
:0408B2007514407504
:0308B6001518759D
:0A08B90013409000001207797A0046
:0308C300BA400038
:0A08C600500FEA2400F582E4341814
:0708D000F583EAF00A80EC59
:0408D7007510007523
:0308DB001118757C
:0A08DE0012409000001206A57A00F7
:0308E800BA400013
:0A08EB005011EA2400F582E43418ED
:0908F500F583EAF4FBF00A80EA45
:0508FE007513407514A4
:0309030000751567
:0809060018900000120779901F
:0B090E001800E0FA30E0047B018006D6
:0609190063023F0A8A039D
:02091F007A005C
:03092100BA4000D9
:0A09240050208A047D007510407514
:03092E0011188B12
:0C093100128C828D83C002C0031206A548
:09093D00D003D002EB2AFA80DBA2
:030946008B82227F
:0EE0000012010002FFFFFF40C0162F070201B1
:04E00E000102060104
:0AE012000A060002FFFFFF400100B4
:0EE01C0009023200030100C0000904000000E8
:0EE02A00FFFFFF030904010001FFFFFF0407D1
:0EE038000502020002000904020001FFFFFFC2
:08E04600050705860200020037
:0EE04E0012010002FFFFFF40C0162F07020163
:04E05C0001020001BC
:0AE060000A060002FFFFFF40010066
:0EE06A0009021200010100C0000904000000BC
:04E07800FFFFFF03A4
:01E07C00079C
:02E07D008CE035
:02E07F0092E02D
:02E08100B8E005
:02E08300C8E0F3
:02E08500EAE0CF
:02E0870006E1B0
:02E0890020E194
:06E08C0006030000090478
:0EE0920026035300690047006500200053007C
:0EE0A00065006D00690063006F006E00640093
:0AE0AE007500630074006F0072003B
:0EE0B8001003530045003400310031003000E9
:02E0C6004C000C
:0EE0C800220343006F006D006D0061006E00CA
:0EE0D60064002000260020005300740061004A
:06E0E400740075007300DA
:0EE0EA001C035400720061006E0073006D0094
:0EE0F800690074002000500061007400680090
:0EE106001A0352006500630065006900760090
:0CE11400650020005000610074006800ED
:0CE120000C0331003000300030003000F3
:080949007880E84400600C799D
:0C09510001901800E4F0A3D8FCD9FAD003
:0E095D0083D082F6D8FDC082C083758200224E
:09096B0090E6A0E0FA4401F0223C
:0E097400AA8274805AFBC423541FFB740F5ACE
:0E09820090E6834BF090E683E0FA4420F022EA
:0E09900090E680E0FA440AF09000FA120FD6CA
:0E099E0090E65D74FFF090E65F74FFF05391F9
:0A09AC00EF90E680E0FA54F7F02225
:06100000E478FFF6D8FDC4
:060FEA00751600751700EA
:0A09B60090E680E0FA30E7197518AA
:0309C000007519A6
:0309C300E0751AC2
:0309C60012751B8C
:0309C900E0751CBA
:0309CC001C751D7A
:0309CF00E0751EB2
:0309D2006A751F24
:0209D500E0221E
:0409D70075184E75CC
:0309DB0019E075AB
:0309DE001A607527
:0309E1001BE075A3
:0309E4001C6A7515
:0309E7001DE0759B
:0309EA001E1C755B
:0309ED001FE022E6
:0909F0005391EF75A100D2003211
:0E09F900C0E0C0F0C082C083C002C003C004D2
:0E0A0700C005C006C007C000C001C0D075D039
:0E0A1500005391EF75A1001209B6D0D0D001A8
:0E0A2300D000D007D006D005D004D003D002FA
:090A3100D083D082D0F0D0E03275
:0E0A3A00C0E0C0F0C082C083C002C003C00490
:0E0A4800C005C006C007C000C001C0D075D0F8
:0E0A5600005391EF75A1001209B6D0D0D00167
:0E0A6400D000D007D006D005D004D003D002B9
:090A7200D083D082D0F0D0E03234
:050A7B001209B675210F
:030A8000F07522EC
:080A830009758200120E68756E
:030A8B0021F975D9
:060A8E002209758210121E
:040A94000E68752152
:030A98003A75228A
:0C0A9B000A758214120E6890E65C74313B
:020AA700F0223B
:0D0AA900E582547FFA24F750047582002284
:070AB600BA01047582012260
:080ABD00530201E4BA00010438
:030AC500F5822295
:0E0AC800AA82BA010C90E6A1E0FB7C008B82B2
:030AD6008C8322EC
:0E0AD900BA810C90E6A2E0FB7C008B828C833D
:010AE70022EC
:0E0AE80053027FEA700C90E6A0E0FB7C008BCE
:040AF600828C832249
:0E0AFA0090E6A3E0FB7C00EAC313FA7D00EA5D
:090B08002BFBED3C8B82F58322EE
:0C0B1100C20090E6B8E0FA530260BA009F
:030B1D000280282B
:050B2000BA2002800D67
:050B2500BA4002800E41
:050B2A00BA6002800327
:030B2F00020DFCB8
:060B320012096B020DFC2C
:0A0B38001201B4E5826003020DFC17
:060B420012096B020DFC1C
:0D0B480090E6B8E0FA530280BA8002800304
:030B5500020CCFC0
:0B0B580090E6B9E0FABA0003020C4B73
:050B6300BA0602803516
:050B6800BA080280083C
:050B6D00BA0A02801726
:030B7200020CC9A9
:0C0B750090E740E516F090E68AE4F0906E
:080B8100E68B7401F0020DFC8B
:0C0B890090E740E517F090E68AE4F09059
:080B9500E68B7401F0020DFC77
:0A0B9D0090E6BBE0FABA01028017EF
:050BA700BA02028038D3
:050BAC00BA03028059AC
:050BB100BA0602801BE2
:050BB600BA0702803CBB
:030BBB00020C45E4
:0A0BBE00AA18AB1990E6B3EBF07B28
:090BC8000090E6B4EAF0020DFC15
:0A0BD100AA1AAB1B90E6B3EBF07B11
:090BDB000090E6B4EAF0020DFC02
:0A0BE400AA1CAB1D90E6B3EBF07BFA
:090BEE000090E6B4EAF0020DFCEF
:0A0BF700AA1EAB1F90E6B3EBF07BE3
:090C01000090E6B4EAF0020DFCDB
:0E0C0A0090E6BAE0FA90E07CE0FBC3EA9B4083
:070C18000612096B020DFC3E
:0C0C1F0090E6BAE0FA75F002A4247DF51E
:0C0C2B008274E035F0F583E0FAA3E0FBF2
:0E0C370090E6B3F07B0090E6B4EAF0020DFC0C
:060C450012096B020DFC18
:0D0C4B0090E6B8E0FA53021FBA0002800ADA
:050C5800BA0102801C3E
:050C5D00BA0266802CC4
:0E0C620090E7407401F090E741E4F090E68ADC
:090C7000F090E68B7402F0805054
:0E0C790090E740E4F090E741F090E68AF090BA
:070C8700E68B7402F0803BD4
:0E0C8E0090E6BCE0FAF582120AA9E582602524
:0E0C9C0090E6BCE0FAF582120AC8E0FA5302B4
:0E0CAA000190E740EAF090E741E4F090E68A1E
:090CB800F090E68B7402F0800854
:050CC10012096B800325
:030CC60012096BA5
:060CC90012096B020DFC94
:0C0CCF0090E6B9E0FA24F45003020DF99D
:070CDB00EA2A2A900CE273E3
:070CE200020DF9020D1802DA
:060CE9000DAB020D8C02B0
:060CEF000DF9020DF902EF
:060CF5000DF9020DF902E9
:060CFB000DF9020D0602D6
:050D01000DF9020D0FC9
:090D060090E6BAE0F516020DFCBE
:090D0F0090E6BAE0F517020DFCB4
:0D0D180090E6B8E0FA53021FBA0002800511
:050D2500BA025E800A25
:0A0D2A0090E6BAE012096B020DFC1E
:0E0D340090E6BAE0704690E6BCE0FAF5821256
:0E0D42000AA9E582603890E6BCE0FAF582125C
:0E0D50000AC8AA82AB8390E6BCE0FCF582C024
:0E0D5E0002C003120AC8D003D002E0FC530406
:0E0D6C00FE8A828B83ECF090E6BCE0FAF58202
:060D7A00120974020DFCD9
:060D800012096B020DFCDC
:060D860012096B020DFCD6
:0E0D8C0090E6B8E0FA53021FBA006590E6BA8E
:070D9A00E0FABA0102800536
:050DA100BA02028056B9
:050DA60012096B8051F1
:090DAB0090E6BAE0FA6002804013
:0E0DB40090E6BCE0FAF582120AA9E582602DF5
:0E0DC20090E6BCE0FAF582120AC8AA82AB8362
:0E0DD00090E6BCE0FCF582C002C003120AC827
:0E0DDE00D003D002E0FC4304018A828B83EC38
:030DEC00F0800D87
:050DEF0012096B8008F1
:050DF40012096B8003F1
:030DF90012096B71
:090DFC0090E6A0E0FA4480F02228
:050E0500AA82BA0300FF
:070E0A004005EA249C5001A1
:010E110022BE
:090E1200740F5AFBBB03028007B8
:070E1B00740F5AFBBB0B45ED
:0A0E2200A2AF9202C2AFEA2400F56D
:0C0E2C0082E43400F5837402F07B007453
:0C0E3800012AFCE43BFDEC2400F582EDF7
:0A0E44003400F583E522FCF074028F
:0C0E4E002AFAE43BFBEA2400F582EB34B6
:0A0E5A0000F583AA217B00EAF0A254
:030E64000292AF48
:010E67002268
:050E6800AA82BA00009F
:070E6D004005EA2483500157
:010E7400225B
:060E7500EA5403600122B3
:0A0E7B00A2AF9203C2AFEA2400F513
:0C0E850082E43401F5837402F07B0074F9
:0C0E9100012AFCE43BFDEC2400F582ED9E
:0A0E9D003401F583E522FCF0740235
:0C0EA7002AFAE43BFBEA2400F582EB345D
:0A0EB30001F583AA217B00EAF0A2FA
:040EBD000392AF22CB
:050EC100AA82BA8000C6
:070EC6004005EA244B500136
:010ECD002202
:060ECE00EA54036001225A
:0A0ED400A2AF9204C2AFEA2480F539
:0C0EDE0082E43400F5837402F07B0074A1
:0C0EEA00012AFCE43BFDEC2480F582EDC5
:0A0EF6003400F583E522FCF07402DD
:0C0F00002AFAE43BFBEA2480F582EB3483
:0A0F0C0000F583AA217B00EAF0A2A1
:040F16000492AF2270
:080F1A00C2E8C2EA752100756E
:060F22002201758243125A
:040F28000E0575211C
:030F2C00807522AB
:0C0F2F0000758253120E050090E650E49D
:0E0F3B00F00090E652E4F00090E654E4F0007E
:0E0F490090E656E4F00090E65174FFF0009040
:0E0F5700E65374FFF00090E65574FFF0009032
:0E0F6500E65774FFF00090E658E4F090E6596D
:0E0F730074FFF090E65AE4F090E65B74FFF035
:0E0F810090E65CE4F090E65D74FFF090E65EB2
:0E0F8F00E4F090E65F74FFF00090E660E4F09E
:0D0F9D000090E66174FFF090E662E4F090D1
:0E0FAA00E66374FFF090E665E4F090E668748C
:0A0FB8000BF05391AFD2E8D2EA2209
:010FC200220C
:020FC300AA8200
:060FC500120FC2DAFB224C
:030FCB0090FB5048
:080FCE00A3E582458370F922BE
:040FD600AA82AB83BD
:080FDA00120FCB1ABAFF011B34
:050FE200EA4B70F4224F
:030FF300758122E3
:0A0FF600120949E582600302018040
:00000001FF
